:100000000C9446000C945D000C945D000C945D0013
:100010000C945D000C945D000C945D000C945D00EC
:100020000C945D000C945D000C945D000C945D00DC
:100030000C945D000C945D000C945D000C945D00CC
:100040000C945D000C945D000C945D000C945D00BC
:100050000C945D000C945D000C945D000C945D00AC
:100060000C945D000C945D000C945D000C945D009C
:100070000C945D000C945D000C945D000C945D008C
:100080000C945D000C945D000C945D0011241FBE67
:10009000CFEFD0E4DEBFCDBF11E0A0E0B1E0EEE7EE
:1000A000F1E000E00BBF02C007900D92AE30B10747
:1000B000D9F70E9488000C94BD000C940000CF93E7
:1000C000DF9300D01F92CDB7DEB789837B836A832D
:1000D00089818A3031F48A819B81BC018DE00E9444
:1000E0005F0080EC90E0FC018081882F90E08072BE
:1000F00099270097B1F386EC90E02981FC012083D9
:1001000080E090E00F900F900F90DF91CF910895D5
:10011000CF93DF9300D0CDB7DEB78AE290E0FC0149
:1001200010828BE290E02FEFFC01208384E290E0CC
:100130002EEFFC01208385E290E021E0FC0120838A
:100140001A8289E290E0FC0180818A8319828A8187
:10015000873418F082E089830AC08A81863030F0C3
:100160008A81863418F484E0898301C0198285E28B
:0E01700090E02981FC012083E4CFF894FFCFBA
:0E017E0000000002000000005F000000000012
:00000001FF
